:020000040000FA
:04000000A3EF3FF03B
:107F46000001B7EF3FF00106000E025A035A045A29
:107F56000150021003100410D8A4B4EF3FF0B6EF9E
:107F66003FF0A6EF3FF012009680968296848D80B1
:107F76008D928D84000E066E000E056EE80E016E63
:107F8600030E026E000E036E000E046EA6EC3FF0AA
:107F9600054A062A06BED9EF3FF0065009E10B0E48
:107FA600055CD8A0D9EF3FF0DBEF3FF0C1EF3FF023
:107FB6008D908D828D94000E086E000E076EE80E71
:107FC600016E030E026E000E036E000E046EA6EC2A
:107FD6003FF0074A082A08BEFAEF3FF0085009E1C9
:107FE6000B0E075CD8A0FAEF3FF0FCEF3FF0E2EF94
:0A7FF6003FF0BAEF3FF000EF00F09B
:020000040020DA
:08000000FFFFFFFFFFFFFFFF00
:020000040030CA
:0E00000018051F1FFF8385FF0FC00FE00F4084
:00000001FF
