:04000000F0EF09F024
:1008000000001250800B1B6E12501224216E11AE8C
:100810000CEF04F00EEF04F00FEF04F021802150F4
:10082000D8B415EF04F017EF04F02AEF04F02128F4
:10083000D8A41DEF04F01FEF04F027EF04F0000E22
:100840000F6E000E106E000E116E000E126E118EE5
:1008500032EF04F0000E0F6E000E106E000E116EDF
:10086000000E126E1650800B1B1A16501624206EA6
:1008700015AE3DEF04F03FEF04F040EF04F02080B0
:100880002050D8B446EF04F048EF04F05BEF04F0DA
:100890002028D8A44EEF04F050EF04F058EF04F0F5
:1008A000000E136E000E146E000E156E000E166E06
:1008B000158E63EF04F0000E136E000E146E000E22
:1008C000156E000E166E2050D8B469EF04F06BEF71
:1008D00004F073EF04F02150D8A471EF04F073EF2B
:1008E00004F07DEF04F0000E0F6E000E106E000E8F
:1008F000116E000E126E15EF06F015500F02F3CFB9
:1009000026F0F4CF27F026501C6E1D6A1E6A1F6A5F
:100910002750226E236A246A256A14501002F3CFEE
:1009200026F0F4CF27F026501C26000E1D221E2292
:100930001F2227502226000E232224222522135074
:100940001102F3CF26F0F4CF27F026501C26000E1C
:100950001D221E221F2227502226000E232224227F
:1009600025221EC01FF01DC01EF01CC01DF01C6AF9
:1009700013501002F3CF26F0F4CF27F026501C2698
:1009800027501D22000E1E22000E1F2214500F029F
:10099000F3CF26F0F4CF27F026501C2627501D2237
:1009A000000E1E22000E1F221EC01FF01DC01EF0D2
:1009B0001CC01DF01C6A13500F02F3CF26F0F4CFB9
:1009C00027F026501C2627501D22000E1E22000E46
:1009D0001F2215501002F3CF26F0F4CF27F0265037
:1009E000222627502322000E2422000E25221450F6
:1009F0001102F3CF26F0F4CF27F0265022262750FD
:100A00002322000E2422000E252215501102F3CFBE
:100A100026F0F4CF27F02650176E2750186E196A6B
:100A20001A6A19C01AF018C019F017C018F0176A1E
:100A30001750222618502322195024221A502522FA
:100A40001CC017F01DC018F01EC019F01FC01AF00E
:100A5000190E30EF05F0D8901A32193218321732C9
:100A6000E82E2BEF05F0175022261850232219509C
:100A700024221A5025221EC01FF01DC01EF01CC0CB
:100A80001DF01C6A205021C017F0186A1726000EAE
:100A90001822820E1724266EFF0E1820276E66EF8E
:100AA00005F0D89022362336243625361FAE5BEF6C
:100AB00005F05DEF05F05EEF05F02280D8901C3662
:100AC0001D361E361F362606D8A0270624AE6BEF2D
:100AD00005F06DEF05F051EF05F0000E206E1FAE32
:100AE00074EF05F076EF05F09AEF05F0FF0E1C1499
:100AF000176EFF0E1D14186EFF0E1E14196E7F0E5A
:100B00001F141A6E1750181019101A10D8B48BEF42
:100B100005F08DEF05F091EF05F0010E206E9AEFD4
:100B200005F022A096EF05F098EF05F09AEF05F09A
:100B30008DEF05F02050D8B4A0EF05F0A2EF05F03E
:100B4000C6EF05F0010E2226000E232224222522C4
:100B500025A0ADEF05F0AFEF05F0C6EF05F022C020
:100B600017F023C018F024C019F025C01AF01A3469
:100B70001A3219321832173217C022F018C023F077
:100B800019C024F01AC025F0264A272A27BED1EF23
:100B900005F0275008E12628D8A0D1EF05F0D3EFC3
:100BA00005F0DDEF05F0000E226E000E236E800EC4
:100BB000246E7F0E256E0BEF06F027BEEAEF05F0E0
:100BC000275006E12604D8B0E8EF05F0EAEF05F07B
:100BD000F6EF05F0000E226E000E236E000E246E5E
:100BE000000E256E000E1B6E0BEF06F026C021F0E6
:100BF000FF0E2216FF0E23167F0E2416000E25165A
:100C000021A005EF06F007EF06F008EF06F0248EAE
:100C1000D8902130256E1B50251222C00FF023C022
:100C200010F024C011F025C012F012002B50800BE0
:100C3000386E2B502B243F6E2AAE21EF06F023EFA7
:100C400006F024EF06F03F803F50D8B42AEF06F0BC
:100C50002CEF06F041EF06F03F28D8A432EF06F063
:100C600034EF06F03CEF06F0000E286E000E296E01
:100C7000000E2A6E000E2B6E2A8E000E2B6E49EF90
:100C800006F0000E286E000E296E000E2A6E000E71
:100C90002B6E2F50800B381A2F502F24406E2EAE03
:100CA00054EF06F056EF06F057EF06F04080405044
:100CB000D8B45DEF06F05FEF06F074EF06F0402861
:100CC000D8A465EF06F067EF06F06FEF06F0000EB0
:100CD0002C6E000E2D6E000E2E6E000E2F6E2E8EC0
:100CE000000E2F6E7CEF06F0000E2C6E000E2D6EA7
:100CF000000E2E6E000E2F6E2C502D102E102F1069
:100D0000D8A485EF06F087EF06F09FEF06F0000EFF
:100D1000286E000E296E000E2A6E000E2B6E800EBD
:100D20002A127F0E2B1238502B1228C028F029C00F
:100D300029F02AC02AF02BC02BF0E2EF07F03F5039
:100D4000D8A4A5EF06F0A7EF06F0B1EF06F0000E6D
:100D5000286E000E296E000E2A6E000E2B6EE2EF3A
:100D600007F040503FC030F0316A305E000E315A1B
:100D70007F0E3024396E000E31203A6E28C034F0D8
:100D800029C035F02AC036F02BC037F0000E286E8F
:100D9000000E296E000E2A6E000E2B6E000E3B6EAA
:100DA000000E3C6E000E3D6E000E3E6E000E406E5C
:100DB00012EF07F04050D8B4E0EF06F0E2EF06F093
:100DC000F9EF06F0D8903436353636363736D890C7
:100DD000283629362A362B363EAEF1EF06F0F3EFF1
:100DE00006F0F4EF06F02880D8903B363C363D36CE
:100DF0003E362C50345C2D5035582E5036582F50DE
:100E00003758D8A006EF07F008EF07F011EF07F00A
:100E10003E8C2C50345E2D50355A2E50365A2F5061
:100E2000375A402A190E406418EF07F01AEF07F0FE
:100E3000DAEF06F03450351036103710D8B423EFFF
:100E400007F025EF07F03DEF07F03B803DEF07F09F
:100E5000D890283629362A362B363EAE32EF07F0A8
:100E600034EF07F035EF07F02880D8903B363C365A
:100E70003D363E363906D8A03A062AAE42EF07F094
:100E800044EF07F028EF07F0000E406E3EAE4BEF48
:100E900007F04DEF07F071EF07F0FF0E3B14306ED7
:100EA000FF0E3C14316EFF0E3D14326E7F0E3E1469
:100EB000336E3050311032103310D8B462EF07F077
:100EC00064EF07F068EF07F0010E406E71EF07F076
:100ED00028A06DEF07F06FEF07F071EF07F064EFF8
:100EE00007F04050D8B477EF07F079EF07F09DEFA7
:100EF00007F0010E2826000E29222A222B222BA0E1
:100F000084EF07F086EF07F09DEF07F028C030F080
:100F100029C031F02AC032F02BC033F033343332E1
:100F200032323132303230C028F031C029F032C094
:100F30002AF033C02BF0394A3A2A3ABEA8EF07F01C
:100F40003A5008E13928D8A0A8EF07F0AAEF07F037
:100F5000B5EF07F0000E3A6E3968000E286E000EED
:100F6000296E000E2A6E000E2B6E3ABEC2EF07F0FD
:100F70003A5006E13904D8B0C0EF07F0C2EF07F0ED
:100F8000D0EF07F0000E3A6E000E396E000E286E9C
:100F9000000E296E000E2A6E000E2B6E000E386EAB
:100FA00039C03FF03FA0D7EF07F0D9EF07F0DCEFF3
:100FB00007F02A8EDDEF07F02A9ED8903F302B6E87
:100FC00093EF06F01200096E0950D8B4EAEF07F06B
:100FD000ECEF07F00EEF08F004BEF3EF07F0F1EFCF
:100FE00007F00EEF08F001C005F002C006F003C0E4
:100FF00007F004C008F0051E061E071E081E052A7D
:10100000000E06220722082205C00BF006C00CF0D5
:1010100007C00DF008C00EF016EF08F001C00BF08D
:1010200002C00CF003C00DF004C00EF0015002101D
:1010300003100410D8A41FEF08F021EF08F02BEFE5
:1010400008F0000E016E000E026E000E036E000E20
:10105000046EBCEF08F0960E0A6E35EF08F00A2A0F
:10106000D8900E320D320C320B32000E0B14056E7E
:10107000000E0C14066E000E0D14076EFE0E0E14FC
:10108000086E0550061007100810D8A44AEF08F0A3
:101090004CEF08F02FEF08F05AEF08F00A2A010E83
:1010A0000B26000E0C220D220E22D8900E320D328D
:1010B0000C320B32000E0B14056E000E0C14066E73
:1010C000000E0D14076EFF0E0E14086E055006106C
:1010D00007100810D8A46FEF08F071EF08F04EEF7A
:1010E00008F079EF08F00A06D8900B360C360D366A
:1010F0000E360DBE7EEF08F080EF08F088EF08F0A6
:10110000020E0A6086EF08F088EF08F073EF08F02F
:101110000AB08DEF08F08FEF08F090EF08F00D9E09
:10112000D8900A320AC005F0066A076A086A05C044
:1011300008F0076A066A056A05500B1206500C1281
:1011400007500D1208500E120950D8B4AAEF08F03B
:10115000ACEF08F0B4EF08F004BEB3EF08F0B1EF65
:1011600008F0B4EF08F00E8E0BC001F00CC002F0D6
:101170000DC003F00EC004F01200000E0114096E41
:10118000000E02140A6E800E03140B6E7F0E041400
:101190000C6E09500A100B100C10D8A4D2EF08F0F6
:1011A000D4EF08F0DCEF08F0000E016E000E026EC6
:1011B000000E036E000E046E000E0514096E000E84
:1011C00006140A6E800E07140B6E7F0E08140C6E48
:1011D00009500A100B100C10D8A4F1EF08F0F3EF2F
:1011E00008F0FBEF08F0000E056E000E066E000E14
:1011F000076E000E086E04AE00EF09F002EF09F072
:101200000BEF09F0016C021ED8B0022A031ED8B001
:10121000032A800E045608AE10EF09F012EF09F011
:101220001BEF09F0056C061ED8B0062A071ED8B0C1
:10123000072A800E0856000E011A000E021A000E30
:10124000031A800E041A000E051A000E061A000E6C
:10125000071A800E081A0550015C06500258075004
:10126000035808500458D8B038EF09F03AEF09F0A5
:101270003DEF09F0D8903EEF09F0D8801200C6EC9F
:1012800009F001C049F002C04AF0000E136E000ED2
:10129000146EA00E156E400E166E49C001F04AC0C5
:1012A00002F0036A046A000EE3EC07F001C00FF0DD
:1012B00002C010F003C011F004C012F001EC04F001
:1012C0000FC028F010C029F011C02AF012C02BF076
:1012D000000E2C6EC00E2D6E7F0E2E6E440E2F6EE5
:1012E00016EC06F028C045F029C046F02AC047F0A9
:1012F0002BC048F045C041F046C042F047C043F023
:1013000048C044F012003FEC09F041C04BF042C02D
:101310004CF043C04DF044C04EF04BC001F04CC007
:1013200002F04DC003F04EC004F0A40E056E700E26
:10133000066E9D0E076E3F0E086EBDEC08F0D8B02D
:10134000A4EF09F0A6EF09F0A9EF09F08D84AAEF48
:1013500009F08D941200700ED312D350FC0B0109CA
:10136000D36E968496948D94E9EC09F083EC09F0A1
:10137000100E016E270E026E000E036E000E046E3C
:10138000D8EC09F0B6EF09F000EF00F0C282C2B26B
:10139000CCEF09F0CEEF09F0C7EF09F0C450046EAE
:1013A000036AC3500324016E000E0420026E120073
:1013B0000106000E025A035A045A0150021003108B
:1013C0000410D8A4E6EF09F0E8EF09F0D8EF09F02F
:1013D00012000E0EC16EA90EC06E010EC26E12007A
:0613E0000001ABEF09F073
:020000040020DA
:08000000FFFFFFFFFFFFFFFF00
:020000040030CA
:0E00000018051F1FFF8385FF0FC00FE00F4084
:00000001FF
